:100000000C94CD000C94F5000C94F5000C94F500C4
:100010000C94F5000C94F5000C94F5000C94F5008C
:100020000C94F5000C94F5000C9499050C940806BA
:100030000C94F5000C94F5000C94F5000C94F5006C
:100040000C94F5000C94F5000C94F5000C94F5005C
:100050000C94F5000C94F5000C94F5000C943A08FF
:100060000C94F5000C94F5000C94F5000C94F5003C
:100070000C94F5000C9484080C94F5000C94F50095
:100080000C94F5000C94F5000C94F5000C94F5001C
:100090000C94F5000C94F5000C94F5000C94F5000C
:1000A0000C94F5000C94F5000C94F5000000000091
:1000B000240027002A002D00300000000002000963
:1000C0000F0000030401000C00000000000000000D
:1000D00000000000000000000000000025002800D3
:1000E0002B002E0031000404040404030405020262
:1000F00002020403020202020606060606060404C1
:100100000202020404040802011040804010204052
:1001100080408008020401804020100201108010FD
:1001200020404020080B00020202000009040000E9
:100130000102020000052400100105240101010450
:10014000240206052406000107058103100040096A
:10015000040100020A000000070502024000000737
:100160000583024000000403090412010002EF02AB
:1001700001404F1B0692000101020301537061729E
:100180006B46756E00537061726B46756E205072CF
:100190006F204D6963726F00190911241FBECFEFE4
:1001A000DAE0DEBFCDBF11E0A0E0B1E0E4EDF1E2C6
:1001B00002C005900D92A832B107D9F722E0A8E25B
:1001C000B1E001C01D92AD34B207E1F710E0CDEC13
:1001D000D0E004C02197FE010E94CE10CC3CD10794
:1001E000C9F70E942E090C94E8100C940000FC0141
:1001F00080914C02882311F13FB7F89482E08093FC
:10020000E9002091F200822F90E01816190614F4EC
:1002100081E090E0882339F0289844E640934B022F
:100220004091F1004083222339F02091F200211106
:1002300003C02BE62093E8003FBF08958FEF9FEFA8
:1002400008952FB7F89483E08093E9009091E80037
:10025000892F807295FF04C09091F20080E4891B81
:100260002FBF08958091430281110DC082E08093D9
:100270003F0284E0809340021092420210924102B9
:1002800081E0809343028FE392E00895CF93DF9360
:100290001F92CDB7DEB76983DC01ED91FC9102803E
:1002A000F381E02D41E050E0BE016F5F7F4F099583
:1002B0000F90DF91CF91089583E08093E9008091C2
:1002C000F200882319F08AE38093E80008950E94E1
:1002D000210190E00895CF93DF931F92CDB7DEB751
:1002E000FC018485958597FD08C02FEF3FEF35878A
:1002F00024870F90DF91CF910895CE0101960E943F
:10030000F700019719F4898190E0F3CF8FEF9FEF09
:10031000F0CF0F931F93CF93DF931F92CDB7DEB72C
:100320008C01FC018485958597FF0BC0CE01019659
:100330000E94F700019771F4898190E0F801958798
:100340008487F801848595850F90DF91CF911F9167
:100350000F9108958FEF9FEFF1CFFC018485958574
:1003600097FD0BC09FB7F89482E08093E9008091DD
:10037000F2009FBF90E0019608959FB7F89482E045
:100380008093E9008091F2009FBF90E00895409132
:10039000E9015091EA012091E7013091E80142170B
:1003A0005307B4F49091E8009570E1F39091E80060
:1003B00092FD19C08093F1008091E9019091EA01CA
:1003C00001968F739927892B19F48EEF8093E8009B
:1003D0008091E9019091EA0101969093EA0180935E
:1003E000E90181E0089580E00895EF92FF920F9374
:1003F0001F93CF93DF93F82E192FE62E042F81E061
:10040000860F880F0E94C70183E00E94C701CF2D8D
:10041000D12FEC0EFD2EF11CCE15DF05B9F007FF34
:1004200013C0FE0184910E94C701182F80E00E9432
:10043000C701812321968111EFCFDF91CF911F91C9
:100440000F91FF90EF9008958881EDCF81E0F5CF77
:10045000DF92EF92FF920F931F93CF93DF93D82EEB
:100460008A01EB017B01E40EF51ECE15DF0559F084
:10047000D7FE12C0FE0184910E94C701219681110E
:10048000F4CF0FEF1FEFC801DF91CF911F910F91B4
:10049000FF90EF90DF9008958881EECF0F931F9328
:1004A000CF93DF931F92CDB7DEB782E0898342E41A
:1004B00050E064E271E080E80E9428020E9432016C
:1004C000DC0112960D911C910115110589F0D801DE
:1004D000ED91FC910280F381E02DBE016F5F7F4FB3
:1004E000C801099597FD04C0F80100851185ECCF7E
:1004F00089810F90DF91CF911F910F9108956150E5
:1005000030F02091F100FC0120830196F8CF28986B
:1005100084E680934B0208953FB7F8948091E301FD
:100520009091E401A091E501B091E60126B5A89B68
:1005300005C02F3F19F00196A11DB11D3FBFBA2F75
:10054000A92F982F8827BC01CD01620F711D811D35
:10055000911D42E0660F771F881F991F4A95D1F7BA
:100560000895CF92DF92EF92FF920E948C026B016E
:100570007C010E948C026C197D098E099F09683EDE
:10058000734081059105A8F3FF90EF90DF90CF9025
:1005900008958F929F92AF92BF92CF92DF92EF9287
:1005A000FF920F931F93CF93DF936C017B018A011E
:1005B00080910D01882309F458C080914C02882352
:1005C00009F453C08091EE0180FF05C08091E000E6
:1005D00082608093E000E801B12C8AEFA82E93E0BE
:1005E000892E2AE3922E209711F4BB20B9F10E94A4
:1005F0002101811106C0AA94AA20B9F10E94B1027A
:10060000F2CF8C171D0611F00CF08C2F9FB7F894C9
:100610008092E9002091E80025FD02C09FBFE3CF52
:10062000282F30E0C21BD30BF701815020F04191FD
:100630004093F100FACFE20EF31EBB2021F090921E
:10064000E800B12CEBCF8091E80085FDE7CF9092D8
:10065000E800BB24B394209709F3F3CF5D9884E6B8
:100660008093ED01101611063CF081E090E0F60158
:100670009383828310E000E0C801DF91CF911F9146
:100680000F91FF90EF90DF90CF90BF90AF909F9031
:100690008F900895282F30E0F901E654FF4F949190
:1006A000F901EB5FFE4F84912A513F4FF9012491EC
:1006B000222309F430C09923E9F091509F30D0F4FF
:1006C000E92FF0E0EA59FC4F0C94CE109403980304
:1006D00075038C0390037A037A037A039B03A103C7
:1006E000A503A903AF037A03B303909180009F771A
:1006F00090938000E22FF0E0EE0FFF1FE852FF4FD3
:10070000A591B4919FB7F894EC91611132C0809596
:100710008E238C939FBF0895909180009F7DE8CF9A
:1007200090918000977FE4CF94B59F7794BDE2CFFE
:1007300094B59F7DFBCF909190009F779093900010
:10074000D9CF909190009F7DF9CF90919000977FA5
:10075000F5CF9091C0009F779093C000CBCF909140
:10076000C0009F7DF9CF9091C200977F9093C20007
:10077000C1CF8E2BCECFCF93DF9390E0FC01EB5F08
:10078000FE4F24918A519F4FFC0184918823D1F020
:1007900090E0880F991FFC01E455FF4FA591B4919B
:1007A000FC01E852FF4FC591D49161110EC09FB773
:1007B000F8948C91E22FE0958E238C932881E2238C
:1007C000E8839FBFDF91CF9108958FB7F894EC91A4
:1007D000E22BEC938FBFF6CF1F93CF93DF93182FAD
:1007E000EB0161E00E94BB03209739F460E0812FA8
:1007F000DF91CF911F910C944A03CF3FD10511F4A3
:1008000061E0F5CFE12FF0E0E654FF4FE491E150D5
:10081000EF3008F07FC0F0E0E05FFB4F0C94CE10AB
:100820001F0427042C04360440048A048A048A0422
:100830004A0454045E04680475048A047D0484B583
:10084000806884BDC7BDDF91CF911F91089584B5A5
:10085000806284BDC8BDF7CF80918000806880939E
:100860008000D0938900C0938800EDCF80918000F4
:10087000806280938000D0938B00C0938A00E3CF86
:1008800080918000886080938000D0938D00C09319
:100890008C00D9CF80919000806880939000D09395
:1008A0009900C0939800CFCF809190008062809390
:1008B0009000D0939B00C0939A00C5CF8091900088
:1008C000886080939000D0939D00C0939C00BBCF24
:1008D0008091C00080688093C0008091C0008F7BB1
:1008E0008093C000C093CF00AECF8091C0008062E3
:1008F0008093C000C093D000A6CF8091C2008860D2
:100900008093C2008091C2008B7F8093C200C0930D
:10091000D20099CFC038D1050CF072CF67CFE82F45
:10092000F0E0E654FF4FE491E150EF3008F07BC077
:10093000F0E0E356FB4F0C94CE10AC04B104B604C7
:10094000C004CA04130513051305D404DE04E80427
:10095000F204FF041305070584B5806884BD67BDF4
:10096000089584B5806284BD68BD0895809180003B
:100970008068809380007093890060938800089558
:100980008091800080628093800070938B006093E0
:100990008A00089580918000886080938000709321
:1009A0008D0060938C000895809190008068809302
:1009B0009000709399006093980008958091900042
:1009C00080628093900070939B0060939A000895DA
:1009D0008091900088608093900070939D00609358
:1009E0009C0008958091C00080688093C000809131
:1009F000C0008F7B8093C0006093CF0008958091EA
:100A0000C00080628093C0006093D0000895809100
:100A1000C20088608093C2008091C2008B7F809367
:100A2000C2006093D2000895FC0170E030E020E045
:100A3000442381F1CB01022E02C0959587950A943B
:100A4000E2F780FD1CC02083318387E090E09C01A9
:100A5000AB01082E02C0559547950A94E2F740FF76
:100A600004C00197A0F728E030E0808191818830B0
:100A7000910554F5A901481B590BCA0108952F5F30
:100A80003F4F28303105B1F6E0CF2F5F3F4F283080
:100A9000310559F0CB01022E02C0959587950A9435
:100AA000E2F780FFF2CF2083318387E090E09C0162
:100AB000AB01082E02C0559547950A94E2F740FD18
:100AC000D4CF0197A0F7CFCF90E080E00895825176
:100AD0008B30C8F4E82FF0E0E059FA4F0C94CE10B8
:100AE0007B05840586058805830583058A059105B0
:100AF00093059505970587E480937C0080917B00A2
:100B00008F7D80937B00089586E4F6CF85E4F4CF53
:100B100084E4F2CF80E480937C0080917B0080624B
:100B2000F0CF82E4F8CF83E4F6CF84E4F4CF85E419
:100B3000F2CF1F920F920FB60F9211248F939F93B3
:100B40008091E1009091E100937F9093E10083FF19
:100B50000FC01092E90091E09093EB001092EC002E
:100B600092E39093ED0010924C0298E09093F00085
:100B700082FF22C093E09093E9009091F2009923C4
:100B800019F09AE39093E8009091ED01992341F0D8
:100B90009091ED0191509093ED01911101C05D9AFA
:100BA00090914B02992341F090914B029150909378
:100BB0004B02911101C0289A84FF18C08091E20075
:100BC0008E7E81608093E2008091E1008F7E809331
:100BD000E1008091EE018E7E80618093EE019F9115
:100BE0008F910F900FBE0F901F90189580FFF7CF39
:100BF0008091E2008E7E80618093E2008091E1002E
:100C00008E7E8093E1008091EE018E7E8160E5CF43
:100C10001F920F920FB60F921124CF92DF92EF9294
:100C2000FF920F931F932F933F934F935F936F9375
:100C30007F938F939F93AF93BF93EF93FF93CF9344
:100C4000DF93CDB7DEB76C97DEBFCDBF1092E90062
:100C50008091E80083FF25C068E0CE0145960E94A0
:100C60007F0282EF8093E8008D8987FF39C09091E1
:100C7000E80090FFFCCF982F907609F034C19E8950
:100C80004F89588D2F89F88C911131C0803861F5CA
:100C90008091EC018093F1001092F1008EEF80932F
:100CA000E8006C960FB6F894DEBF0FBECDBFDF91A3
:100CB000CF91FF91EF91BF91AF919F918F917F91D4
:100CC0006F915F914F913F912F911F910F91FF90E5
:100CD000EF90DF90CF900F900FBE0F901F90189560
:100CE0009EEF9093E800C7CF1092F100D5CF9130DE
:100CF00059F48111D3CF4130510581F68091EC0137
:100D00008D7F8093EC01CACF933049F48111C6CF17
:100D10004130510519F68091EC018260F2CF953097
:100D200041F48091E80080FFFCCF20682093E3002D
:100D3000B5CF963009F0A9C00B8D1C8D22E0109222
:100D4000E9001092EA011092E901F2122EC010920D
:100D5000E8011092E7010E944E021F8299E09983F8
:100D6000FA8291E09E8390EA98879AEF9987209182
:100D7000E9013091EA01275F3F4F3C832B838D834C
:100D80001092E9001092EA011092E9011093E80133
:100D90000093E70149E050E0BE016F5F7F4F80E0C4
:100DA0000E9428020E944E0279CF1093E80100931E
:100DB000E7010E943201DC0112960D911C91011590
:100DC000110509F451C1D801ED91FC910480F58120
:100DD000E02DBE016B5E7F4FC8010995009709F0B9
:100DE0003EC1F80100851185EACFF3E0FF120EC085
:100DF0008F89882309F440C0823061F440E862E1C1
:100E000085E891E00E94F501811148CF81E280934D
:100E1000EB0047CF813029F440E868E08CE791E0AF
:100E2000F1CF833099F70E943201DC011296ED90E8
:100E3000FC908E010F5F1F4F6801E114F10479F0FF
:100E4000D701ED91FC910680F781E02DB801C70133
:100E50000995080F111DF701E084F184EECFD80148
:100E60001C92F60101900020E9F73197BF016C193F
:100E70007D0940E0C601C6CF66E671E0FB01449102
:100E800050E080E80E94280209CF973009F4BECFD5
:100E9000983021F481E08093F10000CF993009F07F
:100EA000FDCE837009F0B2CFEFE0F1E081E031E0F8
:100EB00096E32191222371F08093E9003093EB00B7
:100EC000DF0111972C912093EC009093ED008F5F40
:100ED000873079F78EE78093EA001092EA008F89D5
:100EE00080934C02DBCE8B8D9C8D1092E90010928A
:100EF000EA011092E9019093E8018093E701898D5E
:100F0000811192C08E899D89913A49F4813209F00C
:100F10007DCF47E050E066E071E080E0B3CF9132F2
:100F200009F074CF833269F48F89988DB0E0A0E026
:100F30008093020190930301A0930401B0930501F3
:100F4000ADCE803269F48091E80082FFFCCF67E08B
:100F500086E091E00E947F028BEF8093E8009ECEB6
:100F6000823209F09BCE8F8980930D01EEEFFFE76F
:100F7000859194918B3F9C4D51F1E0E0F8E0809198
:100F8000060190910701A0910801B0910901803BF1
:100F90009440A105B105F1F480910D0180FD1AC0C6
:100FA000EE3F8AE0F80789F587E797E7918380832A
:100FB000809160008093EB0188E19BE00FB6F8948C
:100FC000A895809360000FBE9093600067CEEEEF0F
:100FD000FAE0D5CF808191818737974709F05ECEBF
:100FE000A895809160008861809360008091EB01FA
:100FF00080936000EE3F2AE0F20789F08091FE0ABC
:101000009091FF0A9183808349CE808191818737B7
:10101000980751F29093FF0A8093FE0AC5CF109271
:10102000FF0A1092FE0A3ACE0E943201DC011296AB
:101030000D911C910115110509F4E8CED801ED912F
:10104000FC910190F081E02DBE016B5E7F4FC801E5
:101050000995811123CEF80100851185EBCF181673
:1010600019060CF41BCED2CEF1E0FF12BECE6AE61A
:1010700071E004CF1F920F920FB60F9211242F939D
:101080003F938F939F93AF93BF938091DF01909194
:10109000E001A091E101B091E2013091DE0123E095
:1010A000230F2D3758F50196A11DB11D2093DE01A8
:1010B0008093DF019093E001A093E101B093E201FE
:1010C0008091E3019091E401A091E501B091E601E6
:1010D0000196A11DB11D8093E3019093E401A093BB
:1010E000E501B093E601BF91AF919F918F913F9140
:1010F0002F910F900FBE0F901F90189526E8230F89
:101100000296A11DB11DD2CF1F920F920FB60F9262
:1011100011242F933F934F935F936F937F938F93FC
:101120009F93AF93BF93EF93FF93209178003091FB
:10113000790080912A01E091350148E0849FC00147
:101140001124E80FF92FF11DEE0FFF1FEA5AFE4F91
:1011500031832083809135018F5F80933501883002
:1011600008F439C02091DA01E6E1F1E087EF90E080
:10117000222309F449C02491FC018491E82FF0E076
:10118000EE0FFF1FE852FF4FA591B4918C91E22F13
:10119000E095E823EC9321E02093DA0110923501E9
:1011A00080912801909129010196909329018093C3
:1011B00028018536910534F01092290110922801FA
:1011C0002093DB0180912A018F5F80932A01883070
:1011D00010F010922A0180913501873019F5809125
:1011E0002D010E946705FF91EF91BF91AF919F91F3
:1011F0008F917F916F915F914F913F912F910F90C0
:101200000FBE0F901F9018952491FC018491E82F38
:10121000F0E0EE0FFF1FE852FF4FA591B491EC9163
:10122000E22BB8CFE0913501F0E0E35DFE4F818124
:10123000D8CFEFEEF1E01382128288EE93E0A0E0C7
:10124000B0E084839583A683B78389E191E091839D
:1012500080838FEF9FEF958784870895CF93DF93E7
:1012600000D000D000D0CDB7DEB7789484B58260CE
:1012700084BD84B5816084BD85B5826085BD85B53A
:10128000816085BD80916E00816080936E001092B8
:101290008100809181008260809381008091810033
:1012A00081608093810080918000816080938000C4
:1012B0008091910082608093910080919100816083
:1012C0008093910080919000816080939000809144
:1012D000C10084608093C1008091C10082608093CE
:1012E000C1008091C10081608093C1008091C300E2
:1012F00081608093C3008091C00082608093C000B1
:101300008091C20081608093C20080917A008460E5
:1013100080937A0080917A00826080937A00809135
:101320007A00816080937A0080917A00806880934F
:101330007A0010924C021092EC011092EE01809112
:10134000D70081608093D70080EA8093D80089B568
:10135000806189BD89B5826089BD09B400FEFDCF79
:101360000E94B1028091D8008F7C80618093D80068
:101370008091E000807F8093E0008091E1008E7E8C
:101380008093E1008DE08093E200559A209A82E0FC
:1013900080932B0188E180932D018AE180932E01B7
:1013A0008BE180932F018CE18093300182E1809367
:1013B000310183E18093320184E18093330185E13F
:1013C0008093340161E082E00E94BB0361E081E12F
:1013D0000E94BB03E7E0F1E08491E8EEF0E0E491E5
:1013E000F0E0EE0FFF1FE852FF4FA591B491EC9192
:1013F000E82BEC9380E880937A0080917A008062F9
:1014000080937A0080917A00876080937A00ADE2C1
:10141000B1E025E331E0ED91E251EB30A8F4F0E0EA
:10142000EC5EF54F0C94CE101F0A930D970D9B0D9B
:10143000240A240A9F0DA50DA90DAD0DB10D8091B3
:101440007E00806880937E002A173B0721F78FE09B
:10145000809338018EE08093370187E080933B01D1
:1014600080E180933A0185E08093360186E08093A5
:10147000390110922C0161E08FE00E94BB0361E012
:101480008EE00E94BB0361E087E00E94BB0361E045
:1014900080E10E94BB0361E085E00E94BB0361E044
:1014A00086E00E94BB0360E080E00E94BB03E4E1B1
:1014B000F1E08491E5EFF0E0E491F0E0EE0FFF1F42
:1014C000E852FF4FA591B491EC91E82BEC93E3E146
:1014D000F1E08491E4EFF0E0E491F0E0EE0FFF1F23
:1014E000E852FF4FA591B491EC91E82BEC93ECE01E
:1014F000F1E08491EDEEF0E0E491F0E0EE0FFF1FFB
:10150000E852FF4FA591B491EC91E82BEC93E5E103
:10151000F1E08491E6EFF0E0E491F0E0EE0FFF1FE0
:10152000E852FF4FA591B491EC91E82BEC9361E068
:1015300070E085E00E94EC0361E070E086E00E94CC
:10154000EC03E0913501F0E0E35DFE4F80810E9405
:10155000670580917A00886480937A0061E081E079
:101560000E94BB0361E083E00E94BB03412C512C2D
:10157000320143948091DB01882309F444C0A8E43C
:10158000B1E080E090E021E04D915D91E92FF0E045
:10159000EE0FFF1FEA5BFE4F6081718164177507D4
:1015A0000CF4922FE82FF0E0EE0FFF1FEA5BFE4FE6
:1015B00060817181461757070CF4822F2F5F283006
:1015C00019F7E92FF0E0EE0FFF1FEA5BFE4F2081D5
:1015D0003181E82FF0E0EE0FFF1FEA5BFE4F8081C4
:1015E0009181A901481B590B493C510554F0820FC8
:1015F000931F97FD0196959587959093440180934D
:1016000043011092DB018091DA01882309F45EC264
:1016100058E0252E312C3C822B8266E4862E61E038
:10162000962E8401F0E0E0E0D12C30E020E090E064
:1016300080E0D90173E0AA0FBB1F7A95E1F7AE0FE6
:10164000BF1FAA0FBB1FAA5ABE4F4D915C91840FBA
:10165000951F2F5F3F4F2830310559F79C0197FFA9
:1016600002C0295F3F4F53E0359527955A95E1F722
:10167000DF01AA0FBB1FAA5ABE4F4D915C91119773
:101680005901A41AB50A1A141B040CF06EC24D912C
:101690005C91B901641B750BEE24E394F12CCE2C04
:1016A000A701A3E0440F551FAA95E1F7DA01AE0F99
:1016B000BF1FAA0FBB1FAA5ABE4F2D903C90119777
:1016C0005901A218B3080D90BC91A02D1A141B0447
:1016D0000CF050C219012A1A3B0AD1016A177B0784
:1016E000BCF4DA01AE0FBF1FAA0FBB1FAA5ABE4F30
:1016F0004D915C9111975901A41AB50A1A141B0453
:101700000CF03BC24D915C91B901641B750BDC2C54
:101710004FEFE41AF40AA8E0EA16F10409F0BFCF8B
:1017200028E0D29ED0011124AE0FBF1FAA0FBB1F0D
:10173000AA5ABE4F2D913C91821B930B67E070E03B
:101740000E94BA10D8016D937D938D013196E830D7
:10175000F10509F06ACF1092DA012091430130912E
:10176000440190E080E0F12CF401419151914F014E
:10177000241735075CF463015201082E04C0AA0C3B
:10178000BB1CCC1CDD1C0A94D2F7FA2801968830C9
:10179000910551F7F0924501E09042014E2D6F2DD9
:1017A000CE0103960E9414052B813C810091DC013F
:1017B0001091DD01283031050CF0EEC18630910525
:1017C0000CF0EAC11093410100934001220F331F36
:1017D00027503109820F931F9093DD018093DC0124
:1017E0008F2D8170FF1CFF24FF1C8F1569F088234B
:1017F00009F4C8C1EE2009F4C8C117E0C12ED12CEC
:10180000D0923F01C0923E010091DC011091DD01B8
:10181000809140019091410160910001709101011E
:101820000817190709F0EEC16F5F7F4F6F3F2FE771
:10183000720709F4E4C17093010160930001909173
:101840003C01990F990F990F60910001709101016E
:1018500080E00E94BA107093D9016093D801E090A3
:10186000D601F090D701E00EF11EB7010F2C000C4D
:10187000880B990B0E94980F26E535E540ED54E45E
:101880000E94481018160CF4D6C1F092D701E092CD
:10189000D6016091D6017091D701072E000C880BFC
:1018A000990B0E94980F26E535E540ED54EC0E9417
:1018B0005B0F87FF08C0FEE7AF2EF9EFBF2EB09297
:1018C000D701A092D6016091D8017091D901072E5D
:1018D000000C880B990B0E94980F20E030E040E04C
:1018E0005EEB0E944D106B017C012CEE2003B001D9
:1018F000219F700D1124072E000C880B990B0E945C
:10190000980F9B01AC01C701B6010E94EF0E6B015D
:101910007C016091D6017091D701072E000C880BD5
:10192000990B0E94980F2FE832EC45EF5CEB0E9478
:101930004D109B01AC01C701B6010E94EF0E0E9441
:10194000600F8B019B0177FF04C022273327261BE2
:10195000370B2F3F310561F05CF02FEF17FD04C00E
:1019600021E0012B09F420E03FEF23038001112443
:10197000C8018C599F4F97FF03C09195819591099C
:101980008F3F910509F00CF45FC1C80117FF04C037
:1019900088279927801B910B6FEF70E0681B790BEC
:1019A000CB01AC01401B510B080F191F942F852F41
:1019B00041307FEF570714F491E08FEF692F782FB4
:1019C0006F3F710519F014F06FEF70E0902F812FC9
:1019D0000130AFEF1A0714F491E08FEFE92EF82EE3
:1019E000BFEFEB16F10421F01CF0EE24EA94F12C89
:1019F000A0913B01B0E0FD01EB5FFE4FAA51BF4F4C
:101A000020913A0130E0C9018B5F9E4F6C012A5151
:101A10003F4F80913901141615060CF018C19491AE
:101A2000FD01A491EA2FF0E0EE0FFF1FE852FF4FF7
:101A3000A591B491EC91E92BEC93F601C490F901D6
:101A40002491E22FF0E0EE0FFF1FE852FF4FA59127
:101A5000B4919C91C094C922CC920E948F04409171
:101A6000380150E0FA01EB5FFE4F4A515F4F209181
:101A7000370130E0B9016B5F7E4F2A513F4F8091B3
:101A80003601101611060CF02AC19491FA01449106
:101A9000E42FF0E0EE0FFF1FE852FF4FA591B49145
:101AA000EC919E2B9C93FB016491F9012491E22F10
:101AB000F0E0EE0FFF1FE852FF4FA591B4919C910B
:101AC000609569236C93B7010E948F046091DC01DB
:101AD0007091DD01E6E0F1E027EE30E048E051E012
:101AE00089EE90E06115710509F040C16491F9013A
:101AF0002491E22FF0E0EE0FFF1FE852FF4FA59177
:101B0000B491EC91E62BEC93FA014491FC018491A1
:101B1000E82FF0E0EE0FFF1FE852FF4FA591B491C0
:101B20008C91482B42C180917E0080648BCC809147
:101B30007E00806287CC80917E00806183CC809122
:101B40007D00816080937D007FCC80917D008460EA
:101B5000F9CF80917D008860F5CF80917D00806114
:101B6000F1CF80917D008062EDCF6D917C91621B01
:101B7000730B92CDA21BB30BB1CD6D917C91621B07
:101B8000730BC5CDEE2009F438CE89EF9FEF90930B
:101B90003F0180933E0138CE079721F51A821982C2
:101BA00081E0E8264E2D6F2DCE0101960E9414058E
:101BB0009C01215031092430310508F025CEE092F6
:101BC0004201109341010093400129813A81220F83
:101BD000331F27503109820F931F9093DD018093AB
:101BE000DC0112CE2830310509F00ECE10934101F0
:101BF0000093400180913E0190913F01EECF6EEF46
:101C00007FE719CED801A81BB90BB0933D01A09373
:101C10003C019A2F990F990F990F80E00E94BA10FA
:101C20007093D9016093D801E1E0F0E0F0930101F5
:101C3000E093000114CEA2E82A2EA6E03A2E3092BC
:101C4000D7012092D60125CE84E690E0AACE452B7E
:101C500019F19491FD01A491EA2FF0E0EE0FFF1F1E
:101C6000E852FF4FA591B4914C91E92FE095E42300
:101C7000EC93F601C490F9012491E22FF0E0EE0F0D
:101C8000FF1FE852FF4FA591B4919C91C92ACC92B5
:101C9000719561957109E1CE9491FD01A491EA2FAE
:101CA000F0E0EE0FFF1FE852FF4FA591B4914C9169
:101CB000E92FE095E423EC93F601C490F901249117
:101CC000E22FF0E0EE0FFF1FE852FF4FA591B49115
:101CD0009C91C094C922CC9270E060E0BECE012BF2
:101CE00019F19491FA014491E42FF0E0EE0FFF1FF7
:101CF000E852FF4FA591B491EC9190959E239C934F
:101D0000FB016491F9012491E22FF0E0EE0FFF1F37
:101D1000E852FF4FA591B4919C91692B6C93662773
:101D200077276E197F09D0CE9491FA014491E42F60
:101D3000F0E0EE0FFF1FE852FF4FA591B491EC9138
:101D400090959E239C93FB016491F9012491E22FCD
:101D5000F0E0EE0FFF1FE852FF4FA591B4919C9168
:101D6000609569236C9370E060E0AECE77FF26C08B
:101D70006491F9012491E22FF0E0EE0FFF1FE85289
:101D8000FF4FA591B491EC91E62BEC93FA014491AD
:101D9000FC018491E82FF0E0EE0FFF1FE852FF4FA7
:101DA000A591B4918C91409548234C9380E090E0AC
:101DB000892B09F4DFCB0E940000DCCB6491F90190
:101DC0002491E22FF0E0EE0FFF1FE852FF4FA591A4
:101DD000B4912C91E62FE095E22395CE5058BB2785
:101DE000AA270E94060F0C940E100E94001038F0D3
:101DF0000E94071020F039F49F3F19F426F40C9448
:101E0000FD0F0EF4E095E7FB0C94F70FE92F0E940D
:101E10001F1058F3BA17620773078407950720F05D
:101E200079F4A6F50C9441100EF4E0950B2EBA2F20
:101E3000A02D0B01B90190010C01CA01A0011124D0
:101E4000FF27591B99F0593F50F4503E68F11A167C
:101E5000F040A22F232F342F4427585FF3CF46950D
:101E600037952795A795F0405395C9F77EF41F162F
:101E7000BA0B620B730B840BBAF09150A1F0FF0FF9
:101E8000BB1F661F771F881FC2F70EC0BA0F621FE5
:101E9000731F841F48F4879577956795B795F795D5
:101EA0009E3F08F0B0CF9395880F08F09927EE0F6A
:101EB0009795879508950E94D30F08F481E00895BF
:101EC0000E94670F6894B1110C94421008950E940B
:101ED000271088F09F5798F0B92F9927B751B0F085
:101EE000E1F0660F771F881F991F1AF0BA95C9F79E
:101EF00014C0B13091F00E944110B1E008950C94EB
:101F00004110672F782F8827B85F39F0B93FCCF39D
:101F1000869577956795B395D9F73EF4909580951A
:101F2000709561957F4F8F4F9F4F0895E89409C03A
:101F300097FB3EF490958095709561957F4F8F4FFC
:101F40009F4F9923A9F0F92F96E9BB279395F69512
:101F5000879577956795B795F111F8CFFAF4BB0F90
:101F600011F460FF1BC06F5F7F4F8F4F9F4F16C0F4
:101F7000882311F096E911C0772321F09EE8872F7E
:101F8000762F05C0662371F096E8862F70E060E03A
:101F90002AF09A95660F771F881FDAF7880F9695B3
:101FA000879597F90895990F0008550FAA0BE0E857
:101FB000FEEF16161706E807F907C0F0121613060B
:101FC000E407F50798F0621B730B840B950B39F44B
:101FD0000A2661F0232B242B252B21F408950A26B1
:101FE00009F4A140A6958FEF811D811D089597F9F1
:101FF0009F6780E870E060E008959FEF80EC0895AF
:1020000000240A94161617061806090608950024D7
:102010000A9412161306140605060895092E039451
:10202000000C11F4882352F0BB0F40F4BF2B11F4C5
:1020300060FF04C06F5F7F4F8F4F9F4F089557FD24
:102040009058440F551F59F05F3F71F04795880F26
:1020500097FB991F61F09F3F79F0879508951216BD
:1020600013061406551FF2CF4695F1DF08C0161669
:1020700017061806991FF1CF86957105610508941A
:102080000895E894BB2766277727CB0197F9089531
:102090000E94D30F08F48FEF08950E9460100C94F3
:1020A0000E100E94001038F00E94071020F09523B7
:1020B00011F00C94F70F0C94FD0F11240C944210A6
:1020C0000E941F1070F3959FC1F3950F50E0551FAC
:1020D000629FF001729FBB27F00DB11D639FAA277D
:1020E000F00DB11DAA1F649F6627B00DA11D661FCC
:1020F000829F2227B00DA11D621F739FB00DA11DED
:10210000621F839FA00D611D221F749F3327A00DA6
:10211000611D231F849F600D211D822F762F6A2F42
:1021200011249F5750409AF0F1F088234AF0EE0FA7
:10213000FF1FBB1F661F771F881F91505040A9F7D4
:102140009E3F510580F00C94F70F0C9442105F3FB6
:10215000E4F3983ED4F3869577956795B795F79510
:10216000E7959F5FC1F7FE2B880F911D9695879588
:1021700097F9089597FB072E16F4009407D077FD82
:1021800009D00E94D41007FC05D03EF490958195AB
:102190009F4F0895709561957F4F0895EE0FFF1F33
:1021A0000590F491E02D0994AA1BBB1B51E107C0D7
:1021B000AA1FBB1FA617B70710F0A61BB70B881FD7
:1021C000991F5A95A9F780959095BC01CD01089566
:0421D000F894FFCFB1
:1021D4000100FFFFFFFF00E100000000000000C15C
:1021E4008081000000000000004601C90267015C14
:0821F40001AD016B018901003E
:1070000055C000006EC000006CC000006AC00000E7
:1070100068C0000066C0000064C0000062C00000DC
:1070200060C000005EC00000FCC400005AC0000048
:1070300058C0000056C0000054C0000052C00000FC
:1070400050C000005DC000004CC000004AC00000FD
:1070500048C0000046C0000044C0000042C000001C
:1070600040C000003EC000003CC000003AC000002C
:1070700038C0000036C0000034C0000032C000003C
:1070800030C000002EC000002CC000002AC000004C
:1070900028C0000026C0000024C0000022C000005C
:1070A00020C000001EC000001CC0000011241FBE34
:1070B000CFEFDAE0DEBFCDBF11E0A0E0B1E0E6E463
:1070C000FFE702C005900D92A43BB107D9F711E08C
:1070D000A4EBB1E001C01D92AD3CB107E1F74FD385
:1070E00030C78ECFF89410926F001092810081E02B
:1070F00085BF15BE47985D9A289A0C9400000895A4
:107100001F920F920FB60F9211242F938F939F937C
:10711000EF93FF9310928500109284008091B40148
:107120009091B501009741F001979093B50180933C
:10713000B401892B09F45D9A8091B6019091B70151
:10714000009741F001979093B7018093B601892B86
:1071500009F4289A8091BA019091BB01019690930D
:10716000BB018093BA01E0E0F0E0859194918F5FDC
:107170009F4F49F08091B8019091B9010196909389
:10718000B9018093B801FF91EF919F918F912F9159
:107190000F900FBE0F901F90189584E08093E90028
:1071A0000DC08091E8008B778093E80003C08EB318
:1071B000882351F08091E80082FFF9CF8091E800A8
:1071C00085FFEFCF8091F1000895982F83E08093A1
:1071D000E9008091E80085FD0DC08091E8008E7780
:1071E0008093E80003C08EB3882369F08091E800A3
:1071F00080FFF9CF9093F1005D9884E690E0909342
:10720000B5018093B40108954F925F926F927F927F
:107210008F929F92AF92BF92CF92DF92EF92FF92A6
:107220000F931F93CF93DF9384E08093E9008091C5
:10723000E80082FF57C2289884E690E09093B70157
:107240008093B601AADF182F853481F48CE49DE188
:107250009093B9018093B80107B600FCFDCFF9996E
:10726000FECF81E180935700E89503C0843519F47F
:1072700094DF8DE00DC28C34E1F38035D1F3843797
:1072800021F484E4A2DF80E003C2813611F489E5B1
:10729000FFC18134B1F481DF182F7FDF90E0880FC8
:1072A000991FAA2797FDA095BA2F312F330F20E001
:1072B000442737FD4095542F822B932BA42BB52BBD
:1072C000B8C1803711F483E5E3C1833549F4C0E0E8
:1072D000D1E089917ADF21E0C730D207D1F7D9C157
:1072E000863521F481E371DF80E3D2C1833731F445
:1072F00087E86BDF85E969DF8EE1CAC18536B9F4BD
:10730000E0E0F0E093E085E090935700E89507B661
:1073100000FCFDCF80935700E89507B600FCFDCF39
:10732000E058FF4FA0E7E030FA0771F7A2CF8237AD
:1073300039F4E1E0F0E089E0809357008491A8C13E
:10734000863439F4E0E0F0E089E0809357008491DE
:107350009FC18E3439F4E3E0F0E089E08093570078
:10736000849196C1813539F4E2E0F0E089E08093C0
:10737000570084918DC1823631F489E526DF80E0A3
:1073800024DF80E885C1823419F0873609F0E5C032
:107390001092B9011092B80100DF082FFEDEF82E1E
:1073A000FCDE682E8554823008F071C1902F80E099
:1073B000CF2DD0E0C82BD92B10926F00173609F0D3
:1073C0004BC081E180935700E895DD24CC24C39421
:1073D0003FC0E090BD01F090BE010091BF0110914F
:1073E000C001B6E46B16D9F4ED2DF0E0EE29FF29CB
:1073F000E4918E2FEADEDD2081F082E090E0A0E0D3
:10740000B0E0E80EF91E0A1F1B1FE092BD01F092CA
:10741000BE010093BF011093C001DC2418C0D80145
:10742000C701B695A7959795879575D5CEDE82E06D
:1074300090E0A0E0B0E0E80EF91E0A1F1B1FE092EA
:10744000BD01F092BE010093BF011093C0012197CE
:10745000209709F0BECF7DC08090BD019090BE0105
:10746000A090BF01B090C00196E4691609F05DC01C
:1074700083E0F40180935700E89507B600FCFDCF48
:1074800054C0F6E46F1661F5772031F1E090BD014C
:10749000F090BE010091BF011091C0017EDED82E98
:1074A000CC24852D90E08C299D29F7010C01409278
:1074B0005700E895112482E090E0A0E0B0E0E80EEB
:1074C000F91E0A1F1B1FE092BD01F092BE0100933E
:1074D000BF011093C00102C060DE582E742423C087
:1074E000E090BD01F090BE010091BF011091C0017C
:1074F00016950795F794E79450DE682FC70113D5CA
:107500008091BD019091BE01A091BF01B091C001D9
:107510000296A11DB11D8093BD019093BE01A09361
:10752000BF01B093C001219704C05524772444249F
:107530004394209709F0A5CF96E4691641F485E0BD
:10754000F40180935700E89507B600FCFDCF8DE06D
:107550003CDE82E080936F009CC0833471F4009124
:10756000BD011091BE0119DE90E021E0F8010C018F
:1075700020935700E89511247CCE833619F5E090CE
:10758000BD01F090BE010091BF011091C00105DE68
:10759000F701E16090E021E00C0120935700E895AD
:1075A000112482E090E0A0E0B0E0E80EF91E0A1F8E
:1075B0001B1FE092BD01F092BE010093BF0110932A
:1075C000C00157CE8D3661F4E091BD01F091BE014E
:1075D00085E080935700E89507B600FCFDCF49CEC3
:1075E000823551F4E091BD01F091BE0105911491F5
:1075F000812FEBDD802F4CC0843421F5E090BD015C
:10760000F090BE010091BF011091C0011695079541
:10761000F794E794C2DD682FC70185D48091BD013E
:107620009091BE01A091BF01B091C0010296A11D31
:10763000B11D8093BD019093BE01A093BF01B09393
:10764000C00117CE843609F5E090BD01F090BE016F
:107650000091BF011091C001D801C701B695A7954F
:107660009795879558D4B1DD82E090E0A0E0B0E036
:10767000E80EF91E0A1F1B1FE092BD01F092BE0129
:107680000093BF011093C00104C08B3111F08FE350
:107690009CDD83E08093E9009091E8008091E80010
:1076A0008E778093E80095FF04C010C08EB38823C6
:1076B000C9F08091E80080FFF9CF8091E8008E77D3
:1076C0008093E80003C08EB3882361F08091E800C6
:1076D00080FFF9CF84E08093E9008091E8008B7708
:1076E0008093E800DF91CF911F910F91FF90EF9071
:1076F000DF90CF90BF90AF909F908F907F906F90D2
:107700005F904F9008959091C501892F8F778132B6
:1077100049F58091C6018032A1F0813219F5913A84
:1077200009F58091E800877F8093E8008CE091E084
:1077300067E070E027D28091E8008B778093E800C3
:107740000895913279F48091E800877F8093E80072
:107750008CE091E067E070E079D28091E8008E776C
:107760008093E800089582E061EC42E0D1D083E0AC
:1077700061E842E1CDD084E060E842E1C9C01F93F6
:10778000209100081092000844B714BE88E10FB69B
:10779000F89480936000109260000FBE80E8E0E0F3
:1077A000F0E00FB6F89480936100E09361000FBEA3
:1077B00031E035BF92E095BF3F9A209A559A809369
:1077C00061001092610047985D9A289A1092890092
:1077D0008AEF8093880090936F0083E0809381000C
:1077E000859194918F5F9F4F11F03093BC01942F3E
:1077F00041FF19C0809109012817A9F08093000862
:10780000789480911301882339F08091BA01909186
:10781000BB018F5E9240C8F3F8941092000881E09B
:10782000809313010CC090FF04C08091BC01882399
:1078300051F493FF09C080910901281729F0809124
:10784000BC01882309F04EDCD4D078941092B901A1
:107850001092B8011EEF20C0D7DC4BD38091B80145
:107860009091B90181549F4110F0109213018091C1
:10787000C1019091C20101969093C2018093C10110
:10788000292F97FF03C0512F591B252F220F28178F
:1078900010F4479801C0479A809113018823E1F6BC
:1078A0008091E00081608093E0001CDC80E090E04B
:1078B0001F910895FA01923049F0933061F09130B0
:1078C000F9F484E191E022E130E01EC086E291E02B
:1078D0002EE330E019C0882329F484E691E024E007
:1078E00030E012C0813029F488E691E02EE130E0EA
:1078F0000BC0823029F488E891E02AE230E004C02D
:1079000080E090E020E030E091838083C901089519
:107910008093E9008091EB0081608093EB001092EE
:10792000ED006093EC004093ED008091EE00881F25
:107930008827881F08958091C50188238CF403C08F
:107940008EB38823B1F08091E80082FFF9CF809157
:10795000E8008B778093E80008958EB3882349F080
:107960008091E80080FFF9CF8091E8008E778093C6
:10797000E8000895EF92FF920F931F9345D04CD0EB
:1079800008ED10E0F80180818F7780838081806826
:10799000808380818F7D808319BC1EBA1092C301C1
:1079A00080EEE82EF12CF70180818B7F8083F80137
:1079B00080818160808380E060E042E0A9DFE1EEC9
:1079C000F0E080818E7F8083E2EEF0E08081816054
:1079D0008083808188608083F70180818E7F8083AF
:1079E000F8018081806180831F910F91FF90EF905B
:1079F0000895E7EDF0E08081816080838AE482BFB2
:107A000081E08093C401B6CFE8EDF0E080818E7F05
:107A100080831092E20008951092DA001092E10043
:107A200008951F920F920FB60F9211242F933F9338
:107A30004F935F936F937F938F939F93AF93BF9376
:107A4000EF93FF938091DA0080FF1BC08091D800F4
:107A500080FF17C08091DA008E7F8093DA008091DA
:107A6000D90080FF0BC080E189BD82E189BD09B4E6
:107A700000FEFDCF81E08EBB3BD203C019BC1EBA15
:107A800037D28091E10080FF17C08091E20080FF33
:107A900013C08091E2008E7F8093E2008091E2002B
:107AA00080618093E2008091D80080628093D8004A
:107AB00019BC85E08EBB1CD28091E10084FF2CC0F4
:107AC0008091E20084FF28C080E189BD82E189BD08
:107AD00009B400FEFDCF8091D8008F7D8093D8003F
:107AE0008091E1008F7E8093E1008091E2008F7EA3
:107AF0008093E2008091E20081608093E2008091B7
:107B0000C301882331F48091E30087FD02C081E046
:107B100001C084E08EBBECD18091E10083FF21C0E5
:107B20008091E20083FF1DC08091E100877F8093F8
:107B3000E10082E08EBB1092C3018091E1008E7F54
:107B40008093E1008091E2008E7F8093E20080913B
:107B5000E20080618093E20080E060E042E0D8DEF5
:107B6000C7D1FF91EF91BF91AF919F918F917F917D
:107B70006F915F914F913F912F910F900FBE0F909A
:107B80001F9018959C014091CB015091CC01461754
:107B9000570718F4F90190E044C06115710511F020
:107BA000AB01F8CF8091E8008E778093E80040E049
:107BB00050E0F0CF8EB3882309F444C0853009F437
:107BC00043C08091E80083FF02C081E00895809166
:107BD000E80082FD31C08091E80080FF22C08091E2
:107BE000F3009091F200782F60E0292F30E0262BEF
:107BF000372B07C081918093F100415050402F5F97
:107C00003F4F4115510519F02830310598F390E0A8
:107C10002830310509F491E08091E8008E77809357
:107C2000E8004115510531F6992321F605C08EB3C0
:107C3000882341F0853041F08091E80082FFF7CF42
:107C400080E0089582E0089583E008959C01611525
:107C5000710529F48091E8008B778093E800F901A1
:107C600026C08EB3882391F1853091F18091E80090
:107C700083FF02C081E008958091E80082FFF1CF88
:107C800006C08091F10081936150704059F02091BD
:107C9000F3008091F200322F20E090E0822B932BB2
:107CA000892B79F78091E8008B778093E800611544
:107CB0007105B9F605C08EB3882341F0853041F0D7
:107CC0008091E80080FFF7CF80E0089582E008957A
:107CD00083E008950F931F93DF93CF9300D0CDB728
:107CE000DEB7E5ECF1E08091F100819381E0ED3CBD
:107CF000F807C9F708DD8091E80083FFE4C08091B0
:107D0000C5019091C601953009F46DC0963040F4DC
:107D1000913081F1913070F0933009F0D4C02AC0D5
:107D2000983009F4A3C0993009F4B2C0963009F034
:107D3000CAC07CC0803809F4C6C0823809F0C3C00C
:107D40008091C90187708093E9008091EB001092C7
:107D5000E9002091E800277F2093E80090E025E0EB
:107D6000969587952A95E1F781708093F10010929E
:107D7000F10087C0882319F0823009F0A4C08F7108
:107D8000823009F0A0C08091C701882331F520918D
:107D9000C901277009F497C02093E9008091EB0096
:107DA00080FF1BC0933021F48091EB00806213C0F0
:107DB0008091EB0080618093EB0081E090E002C055
:107DC000880F991F2A95E2F78093EA001092EA0043
:107DD0008091EB0088608093EB001092E900809125
:107DE000E800877F51C0882309F06DC01091C7015A
:107DF0001F770FB7F8948091E800877F8093E800A1
:107E00009ADD8091E80080FFFCCF8091E3008078CC
:107E1000812B8093E30080688093E300112311F4A9
:107E200082E001C083E08EBB0FBF4DC0805882301E
:107E300008F049C08091C7019091C8016091C901C3
:107E4000AE014F5F5F4F36DDBC01009709F43BC0C8
:107E50008091E800877F8093E80089819A8192DE93
:107E60008091E8008B778093E8002DC0803859F529
:107E70008091E800877F8093E8008091C301809320
:107E8000F1008091E8008E778093E80054DD1BC0FC
:107E90008823C9F49091C7019230A8F48091E8003A
:107EA000877F8093E8009093C30145DD8091C301F3
:107EB000882331F48091E30087FD02C081E001C096
:107EC00084E08EBB50DC8091E80083FF0AC0809183
:107ED000EB0080628093EB008091E800877F8093C5
:107EE000E8000F900F90CF91DF911F910F910895AF
:107EF00008951F938EB3882361F01091E9001092CA
:107F0000E9008091E80083FF01C0E4DE1770109360
:107F1000E9001F910895F999FECF92BD81BDF89AAD
:107F2000992780B50895262FF999FECF1FBA92BDE3
:107F300081BD20BD0FB6F894FA9AF99A0FBE01964A
:067F40000895F894FFCF44
:107F46004341544552494E41007700080000000065
:107F56000000080112011001020000084F1B0592E3
:107F660001000201000109023E00020100803209FF
:107F7600040000010202010005240010010424028D
:107F8600040524060001070582030800FF09040111
:107F960000020A000000070504021000010705831D
:107FA60002100001040309041E03500072006F0052
:107FB60020004D006900630072006F00200035004C
:107FC60056002000200000002A03530070006100C4
:107FD60072006B00460075006E00200045006C00C4
:107FE60065006300740072006F006E006900630034
:047FF6007300000014
:040000030000700089
:00000001FF
